:100000000C940D010C9435010C9435010C943501C0
:100010000C9435010C9435010C9435010C94350188
:100020000C9435010C9435010C9440060C94AF06E9
:100030000C9435010C9435010C9435010C94350168
:100040000C9435010C9435010C9435010C94350158
:100050000C9435010C9435010C9435010C94E10895
:100060000C9435010C9435010C9435010C94350138
:100070000C9435010C9435010C9435010C94350128
:100080000C9435010C9435010C9435010C94350118
:100090000C9435010C9435010C9435010C94350108
:1000A0000C9435010C9435010C94350100000000CE
:1000B000240027002A002D003000080B0002020255
:1000C00001000904000001020200000524001001E3
:1000D0000524010101042402060524060001070588
:1000E000810310004009040100020A000000070516
:1000F00002024000000705830240000004030904D7
:1001000012010002EF02014082820132000101026D
:100110000301556E6B6E6F776E005865614C6F759D
:1001200053206A6F79737469636B000706050401D5
:1001300000080A0B0C0D0900000000250028002B08
:10014000002E00310004040404040304050202022A
:100150000204030202020206060606060604040260
:100160000202040404080201104080401020408074
:1001700040800802040180402010020110801020FD
:100180004040200000000200090F000003040100AD
:100190000C00000000000000000000000000000053
:1001A000000005010904A1018503050919012920A1
:1001B0001500250175019520550065008102050295
:1001C000150026FF00A10009BB09BA750895028138
:1001D00002C005010939150025073500463B0165B8
:1001E000147504950181020939150025073500466B
:1001F0003B016514750495018102150026FF007509
:10020000080901A10009300931093209330934090B
:100210003595068102C0C0002B0911241FBECFEF07
:10022000DAE0DEBFCDBF11E0A0E0B1E0ECEFF9E134
:1002300002C005900D92A235B107D9F722E0A2E5E0
:10024000B1E001C01D92A431B207E1F711E0CDE0A9
:10025000D1E004C02197FE010E94E20CCC30D1070E
:10026000C9F70E94DC090C94FC0C0C940000CF939D
:10027000DF93FC0181819091DD01482F490F5527C3
:10028000551F483051059CF5A281B381109709F59F
:1002900029ED31E03383228320812093DB01809399
:1002A000DC018091DE01820F80832091DF01A22F8B
:1002B000B091E0018A2F821B8917E8F481813D917A
:1002C000C82FD0E0C45FDE4F38838F5F8183F2CFC9
:1002D000D90118962D913C91199721153105C1F737
:1002E00029ED31E019963C932E931897D5CF80E0F5
:1002F000DF91CF91089581E0FBCFE4E9F1E0249113
:10030000E5E7F1E03491E6E5F1E09491992309F411
:1003100030C02223E9F021502F30D0F4E22FF0E05A
:10032000EC56FE4F0C94E20CC201C601A301BA01C7
:10033000BE01A801A801A801C901CF01D301D701BD
:10034000DD01A801E101209180002F77209380003A
:10035000E92FF0E0EE0FFF1FE95CFE4FA591B4918D
:100360009FB7F894EC91811132C030953E233C93B5
:100370009FBF0895209180002F7DE8CF20918000BD
:10038000277FE4CF24B52F7724BDE2CF24B52F7D7E
:10039000FBCF209190002F7720939000D9CF209110
:1003A00090002F7DF9CF20919000277FF5CF2091ED
:1003B000C0002F772093C000CBCF2091C0002F7DAD
:1003C000F9CF2091C200277F2093C200C1CF3E2BDE
:1003D000CECFFC0180918801882311F13FB7F894BA
:1003E00082E08093E9002091F200822F90E01816BD
:1003F000190614F481E090E0882339F0289844E647
:10040000409387014091F1004083222339F02091ED
:10041000F200211103C02BE62093E8003FBF0895AE
:100420008FEF9FEF08954091690150916A012091EB
:1004300067013091680142175307B4F49091E800C6
:100440009570E1F39091E80092FD19C08093F1005E
:100450008091690190916A0101968F739927892B88
:1004600019F48EEF8093E8008091690190916A0100
:10047000019690936A018093690181E0089580E07C
:100480000895EF92FF920F931F93CF93DF93F82E6F
:10049000192FE62E042F81E0860F880F0E94130289
:1004A00083E00E941302CF2DD12FEC0EFD2EF11C04
:1004B000CE15DF05B9F007FF13C0FE0184910E943D
:1004C0001302182F80E00E941302812321968111CC
:1004D000EFCFDF91CF911F910F91FF90EF90089593
:1004E0008881EDCF81E0F5CFDF92EF92FF920F93FD
:1004F0001F93CF93DF93D82E8A01EB017B01E40E8B
:10050000F51ECE15DF0559F0D7FE12C0FE0184910D
:100510000E94130221968111F4CF0FEF1FEFC80143
:10052000DF91CF911F910F91FF90EF90DF90089591
:100530008881EECF2FB7F89487708093E90090916F
:10054000E800892F807295FF04C09091F20080E44A
:10055000891B2FBF0895615030F02091F100FC01FC
:1005600020830196F8CF289884E680938701089528
:1005700080915F0181110DC082E080935B0184E076
:1005800080935C0110925E0110925D0181E0809386
:100590005F018BE591E008950F931F93CF93DF9355
:1005A0001F92CDB7DEB782E0898342E450E06AEB68
:1005B00070E080E80E9474020E94B802DC0112968A
:1005C0000D911C910115110589F0D801ED91FC9157
:1005D0000280F381E02DBE016F5F7F4FC801099556
:1005E00097FD04C0F80100851185ECCF89810F903B
:1005F000DF91CF911F910F910895CF93DF931F92B9
:10060000CDB7DEB76983DC01ED91FC910280F38107
:10061000E02D41E050E0BE016F5F7F4F09950F90E4
:10062000DF91CF91089583E08093E9008091F200FB
:10063000882319F08AE38093E800089583E00E94FC
:100640009A0290E00895CF93DF931F92CDB7DEB763
:10065000FC018485958597FD08C02FEF3FEF358716
:1006600024870F90DF91CF910895CE0101960E94CB
:10067000E901019719F4898190E0F3CF8FEF9FEFA3
:10068000F0CF0F931F93CF93DF931F92CDB7DEB7B9
:100690008C01FC018485958597FF0BC0CE010196E6
:1006A0000E94E901019771F4898190E0F801958732
:1006B0008487F801848595850F90DF91CF911F91F4
:1006C0000F9108958FEF9FEFF1CFFC018485958501
:1006D00097FD0BC09FB7F89482E08093E90080916A
:1006E000F2009FBF90E0019608959FB7F89482E0D2
:1006F0008093E9008091F2009FBF90E00895CF932E
:10070000DF9390E0FC01EC59FE4F24918B5B9E4FF0
:10071000FC0184918823D1F090E0880F991FFC019F
:10072000E455FF4FA591B491FC01E95CFE4FC591E2
:10073000D49161110EC09FB7F8948C91E22FE0958F
:100740008E238C932881E223E8839FBFDF91CF9192
:1007500008958FB7F894EC91E22BEC938FBFF6CF0E
:100760003FB7F8948091570190915801A091590199
:10077000B0915A0126B5A89B05C02F3F19F00196EC
:10078000A11DB11D3FBFBA2FA92F982F8827BC01EB
:10079000CD01620F711D811D911D42E0660F771F13
:1007A000881F991F4A95D1F70895CF92DF92EF9253
:1007B000FF920E94B0036B017C010E94B0036C1990
:1007C0007D098E099F09683E734081059105A8F354
:1007D000FF90EF90DF90CF9008957F928F929F923D
:1007E000AF92BF92CF92DF92EF92FF920F931F933F
:1007F000CF93DF93C82E8B017A01809188018111FC
:1008000010C08FEF9FEFDF91CF911F910F91FF905D
:10081000EF90DF90CF90BF90AF909F908F907F90A0
:10082000089580916D0180FF05C08091E000826095
:100830008093E000CE2DDF2DD12C8AEFB82E8C2DA9
:100840008770982E8C2D8072882E8C2D8074782E37
:100850009AE3A92E209719F4DD2009F44EC08C2DBF
:100860000E949A02811106C0BA94BB2051F20E94E4
:10087000D503F0CF8C171D0611F00CF08C2F9FB70D
:10088000F8949092E9002091E80025FD02C09FBFF6
:10089000E1CF282F30E0C21BD30B882029F08150F4
:1008A000A0F01092F100FBCFF801C7FC0AC0815004
:1008B00050F041914093F100FACF44914093F10000
:1008C00031968150D0F7020F131FDD2021F0A09246
:1008D000E800D12CDCCF8091E80085FD07C0A09214
:1008E000E800DD24D394209791F2F3CF209779F696
:1008F000772069F2A092E800CACF5D9884E68093E1
:100900006C01C70180CF0F931F93CF93DF93CDB7B7
:10091000DEB72E970FB6F894DEBF0FBECDBF309175
:100920000A0220910B0290910C0280910D023983F2
:100930002A839B838C8380910E028D8380910F028A
:100940008E83809110029091110228E097FD09C0DA
:1009500068E671E00E94CE0C6DE270E00E94CE0C61
:10096000262F809112029091130268E097FD08C033
:1009700068E671E00E94CE0C6DE270E00E94CE0C41
:1009800080E1689FB0011124262B2F838091010202
:10099000815888878091020281588987809103025B
:1009A00081588A87809104029091050208E611E03F
:1009B000B8010E94CE0CBC01990F880B990B0E94C4
:1009C000D50B2DE73FE345E35FE30E94390C0E941E
:1009D000A40B6B878091060290910702B8010E94D8
:1009E000CE0CBC01990F880B990B0E94D50B2DE7FB
:1009F0003FE345E35FE30E94390C0E94A40B6C8740
:100A00008091080290910902B8010E94CE0CBC01AD
:100A1000990F880B990B0E94D50B2DE73FE345E317
:100A20005FE30E94390C0E94A40B6D878091EA015C
:100A300081112AC011E01093DD011093DE0183EED5
:100A400091E09093E0018093DF011092E201109217
:100A5000E10189E491E09093DA018093D901109249
:100A6000E5011092E4011092E7011092E601109363
:100A7000E8011093E90181EC8093E3010E94B80240
:100A80000E9437011093EA0183E08E8741E050E035
:100A9000BE01625F7F4F8091DC010E94ED0397FDF4
:100AA0000AC08091DC014DE050E0BE016F5F7F4FD6
:100AB00080640E94ED032E960FB6F894DEBF0FBE41
:100AC000CDBFDF91CF911F910F910895CF93DF9309
:100AD000EC0180910B01882331F083E00E94ED034B
:100AE0001816190634F081E090E09B838A8380E039
:100AF00090E0DF91CF910895DC01FB0112962C91DB
:100B00001297848195812817190641F4918180817B
:100B1000813A31F49D7F81E0913009F080E00895C1
:100B20008132E1F79B3029F482811F968C9381E01A
:100B300008959A3099F7828150968C93F8CFDC0112
:100B4000FB0188E4808389E4818384E482831D96A9
:100B50009C911D979F709F5B93831D968D919C9197
:100B600024E0969587952A95E1F78F708F5B8483B3
:100B700085E00895EF92FF920F931F93CF93DF9339
:100B8000FB012081213871F52381223259F5DC01E6
:100B900012964C91248135814217130619F5EC0108
:100BA0000B851C85F12CE12C0115110589F0F8014C
:100BB000448155816281738180E80E9474028F3F75
:100BC000980749F0E80EF91ED8010D911C91ECCF61
:100BD00081E08F87C701DF91CF911F910F91FF9027
:100BE000EF90089590E080E0F6CFCF93DF93CDB7FC
:100BF000DEB769970FB6F894DEBF0FBECDBFFC011C
:100C0000DB018C918F5F8C939E012D5F3F4F8DE0B8
:100C1000D9011D928A95E9F729E0298384E08A8326
:100C200091E09D8383E08E832A8721E22B879C8736
:100C30009D879F8722E2288B27E02B8B25E02C8B3A
:100C40008E8B20E430E0388F2F8B998F82818B83BD
:100C500095858685998B8A8B838180688D8B49E108
:100C600050E0BE016F5F7F4F80E00E947402699682
:100C70000FB6F894DEBF0FBECDBFDF91CF910895C0
:100C80001F920F920FB60F9211248F939F93809112
:100C9000E1009091E100937F9093E10083FF0FC00A
:100CA0001092E90091E09093EB001092EC0092E337
:100CB0009093ED001092880198E09093F00082FFED
:100CC00022C093E09093E9009091F200992319F0EB
:100CD0009AE39093E80090916C01992341F09091F0
:100CE0006C01915090936C01911101C05D9A9091AB
:100CF0008701992341F0909187019150909387014A
:100D0000911101C0289A84FF18C08091E2008E7E64
:100D100081608093E2008091E1008F7E8093E1000A
:100D200080916D018E7E806180936D019F918F9186
:100D30000F900FBE0F901F90189580FFF7CF8091F6
:100D4000E2008E7E80618093E2008091E1008E7EE1
:100D50008093E10080916D018E7E8160E5CF1F92CE
:100D60000F920FB60F921124CF92DF92EF92FF9263
:100D70000F931F932F933F934F935F936F937F93A3
:100D80008F939F93AF93BF93EF93FF93CF93DF9393
:100D9000CDB7DEB76C97DEBFCDBF1092E900809172
:100DA000E80083FF25C068E0CE0145960E94AB02B3
:100DB00082EF8093E8008D8987FF39C09091E80029
:100DC00090FFFCCF982F907609F034C19E894F890F
:100DD000588D2F89F88C911131C0803861F5809140
:100DE0006E018093F1001092F1008EEF8093E80085
:100DF0006C960FB6F894DEBF0FBECDBFDF91CF91DA
:100E0000FF91EF91BF91AF919F918F917F916F91E2
:100E10005F914F913F912F911F910F91FF90EF9014
:100E2000DF90CF900F900FBE0F901F9018959EEF00
:100E30009093E800C7CF1092F100D5CF913059F4CC
:100E40008111D3CF4130510581F680916E018D7FA4
:100E500080936E01CACF933049F48111C6CF4130DF
:100E6000510519F680916E018260F2CF953041F400
:100E70008091E80080FFFCCF20682093E300B5CF8D
:100E8000963009F0A9C00B8D1C8D22E01092E9006C
:100E900010926A0110926901F2122EC0109268013C
:100EA000109267010E94CC021F8299E09983FA8216
:100EB00091E09E8390EA98879AEF99872091690143
:100EC00030916A01275F3F4F3C832B838D831092C3
:100ED000E90010926A011092690110936801009371
:100EE000670149E050E0BE016F5F7F4F80E00E94E4
:100EF00074020E94CC0279CF1093680100936701BD
:100F00000E94B802DC0112960D911C910115110589
:100F100009F451C1D801ED91FC910480F581E02DD7
:100F2000BE016B5E7F4FC8010995009709F03EC175
:100F3000F80100851185EACFF3E0FF120EC08F891A
:100F4000882309F440C0823061F440E860E18AE11E
:100F500091E00E944102811148CF81E28093EB0031
:100F600047CF813029F440E867E082E191E0F1CF9A
:100F7000833099F70E94B802DC011296ED90FC9044
:100F80008E010F5F1F4F6801E114F10479F0D70162
:100F9000ED91FC910680F781E02DB801C70109951C
:100FA000080F111DF701E084F184EECFD8011C92E7
:100FB000F60101900020E9F73197BF016C197D0916
:100FC00040E0C601C6CF6CEF70E0FB01449150E0F9
:100FD00080E80E94740209CF973009F4BECF9830A0
:100FE00021F481E08093F10000CF993009F0FDCE2B
:100FF000837009F0B2CFEDE0F1E081E031E096E3FB
:101000002191222371F08093E9003093EB00DF01FE
:1010100011972C912093EC009093ED008F5F873017
:1010200079F78EE78093EA001092EA008F89809327
:101030008801DBCE8B8D9C8D1092E90010926A01A5
:10104000109269019093680180936701898D8111E5
:1010500092C08E899D89913A49F4813209F07DCF01
:1010600047E050E064E071E080E0B3CF913209F0F6
:1010700074CF833269F48F89988DB0E0A0E08093BB
:10108000000190930101A0930201B0930301ADCE42
:10109000803269F48091E80082FFFCCF67E084E051
:1010A00091E00E94AB028BEF8093E8009ECE8232EB
:1010B00009F09BCE8F8980930B01EEEFFFE78591BE
:1010C00094918B3F9C4D51F1E0E0F8E08091040158
:1010D00090910501A0910601B0910701803B9440D9
:1010E000A105B105F1F480910B0180FD1AC0EE3F1E
:1010F0008AE0F80789F587E797E7918380838091F5
:10110000600080936B0188E19BE00FB6F894A8958E
:10111000809360000FBE9093600067CEEEEFFAE020
:10112000D5CF808191818737974709F05ECEA8950A
:101130008091600088618093600080916B01809352
:101140006000EE3F2AE0F20789F08091FE0A90915C
:10115000FF0A9183808349CE8081918187379807E8
:1011600051F29093FF0A8093FE0AC5CF1092FF0AB6
:101170001092FE0A3ACE0E94B802DC0112960D913E
:101180001C910115110509F4E8CED801ED91FC91EF
:101190000190F081E02DBE016B5E7F4FC801099583
:1011A000811123CEF80100851185EBCF18161906A1
:1011B0000CF41BCED2CEF1E0FF12BECE60E071E0A7
:1011C00004CF1F920F920FB60F9211242F933F93CB
:1011D0008F939F93AF93BF9380915301909154014C
:1011E000A0915501B09156013091520123E0230F97
:1011F0002D3758F50196A11DB11D20935201809302
:10120000530190935401A0935501B09356018091DE
:10121000570190915801A0915901B0915A0101963E
:10122000A11DB11D8093570190935801A0935901BE
:10123000B0935A01BF91AF919F918F913F912F91A0
:101240000F900FBE0F901F90189526E8230F02965F
:10125000A11DB11DD2CFCF9310928C0110928B01A2
:1012600088EE93E0A0E0B0E080938D0190938E0132
:10127000A0938F01B093900187E391E090938A014E
:10128000809389018FEF9FEF909396018093950152
:101290008091F801811113C01092F3011092F201B4
:1012A00082EA91E09093F5018093F40185E790E064
:1012B0009093F7018093F60181E08093F80180918B
:1012C000EA0181112AC0C1E0C093DD01C093DE01B3
:1012D00083EE91E09093E0018093DF011092E201B0
:1012E0001092E10189E491E09093DA018093D901B1
:1012F0001092E5011092E4011092E7011092E601CC
:10130000C093E801C093E90181EC8093E3010E945E
:10131000B8020E943701C093EA01E091E401F09124
:10132000E501309709F03FC082EF91E09093E5012D
:101330008093E4018091E6019091E7012091F6010C
:101340003091F701820F931F9093E7018093E6019C
:1013500010920102109202021092030210920502F2
:1013600010920402109207021092060210920902D3
:101370001092080210920A0210920B0210920C02B4
:1013800010920D0210920E0210920F028FEF9FEF3B
:101390009093110280931002909313028093120293
:1013A000CF910895FC01808191810097D9F782EF58
:1013B00091E091838083BECFCF93DF93CDB7DEB72B
:1013C00065970FB6F894DEBF0FBECDBF789484B595
:1013D000826084BD84B5816084BD85B5826085BD31
:1013E00085B5816085BD80916E00816080936E00BF
:1013F00010928100809181008260809381008091B1
:101400008100816080938100809180008160809361
:101410008000809191008260809391008091910082
:101420008160809391008091900081608093900012
:101430008091C10084608093C1008091C10082606E
:101440008093C1008091C10081608093C100809130
:10145000C30081608093C3008091C000826080934C
:10146000C0008091C20081608093C20080917A00A8
:10147000846080937A0080917A00826080937A0001
:1014800080917A00816080937A0080917A008068F0
:1014900080937A001092880110926E0110926D0173
:1014A0008091D70081608093D70080EA8093D80034
:1014B00089B5806189BD89B5826089BD09B400FEA6
:1014C000FDCF0E94D5038091D8008F7C80618093EE
:1014D000D8008091E000807F8093E0008091E1005F
:1014E0008E7E8093E1008DE08093E200559A209AF1
:1014F0008FEF9FEF909396018093950161E081E1DA
:101500000E947F0360E082E10E947F0360E083E14C
:101510000E947F0360E084E10E947F0360E085E138
:101520000E947F03109200020E94830488E0E3E19E
:10153000F1E0DE01199601900D928A95E1F788E0BD
:10154000EBE1F1E0DE01119601900D928A95E1F751
:10155000CE0109969A8B898B03E811E0DE01119682
:101560003D018FE6E82E81E0F82EE3E2F1E0FC8B0E
:10157000EB8B1D8AD12CC12CA989BA89EC911296CA
:10158000BA8BA98BE23108F0E251F0E0E55DFE4F45
:10159000E49190917B008E2F880F880F80729F7D41
:1015A000892B80937B00E770E064E0937C0080915E
:1015B0007A00806480937A0080917A0086FDFCCF67
:1015C000209178003091790080907F019090800187
:1015D000A0908101B0908201EB89FC8941915191E9
:1015E00061917191FC8BEB8BD7012D903D904D90CB
:1015F0005C90D501C40182199309A409B5091C01A5
:101600002D01241635064606570608F43FC0C901C9
:10161000D3012D913C9141E0821793070CF040E0FB
:10162000F8015081451791F141E050E060E070E031
:101630000C2C04C0440F551F661F771F0A94D2F765
:1016400020900A0230900B0240900C0250900D0244
:10165000E0910002821793070CF05BC042295329E6
:101660006429752940930A0250930B0260930C027F
:1016700070930D02E1110E948304E1E0D801EC9324
:10168000D7018D929D92AD92BC921397F801808103
:1016900081118D8BFFEFCF1ADF0A0F5F1F4F22E002
:1016A000620E711C84E0E80EF11C94E0C916D104AE
:1016B00009F062CFAD89AA2309F441C080E00E94FD
:1016C0007D015D980E9483040E94B00300917F0118
:1016D000109180012091810130918201601B710B7A
:1016E000820B930B683E73408105910568F30E945D
:1016F000B00360937F017093800180938101909388
:101700008201E0E0F0E0EF2B09F410CF0E9400002E
:101710000DCF4095509560957095422153216421DD
:10172000752140930A0250930B0260930C02709350
:101730000D02E1110E948304F8011082A1CF81E023
:101740000E947D015D9ABECF0E94180C88F09F57C1
:1017500098F0B92F9927B751B0F0E1F0660F771FD5
:10176000881F991F1AF0BA95C9F714C0B13091F0CB
:101770000E94320CB1E008950C94320C672F782F40
:101780008827B85F39F0B93FCCF386957795679590
:10179000B395D9F73EF490958095709561957F4FFC
:1017A0008F4F9F4F0895E89409C097FB3EF49095A2
:1017B0008095709561957F4F8F4F9F4F9923A9F02A
:1017C000F92F96E9BB279395F695879577956795B9
:1017D000B795F111F8CFFAF4BB0F11F460FF1BC0FD
:1017E0006F5F7F4F8F4F9F4F16C0882311F096E990
:1017F00011C0772321F09EE8872F762F05C066233E
:1018000071F096E8862F70E060E02AF09A95660FF6
:10181000771F881FDAF7880F9695879597F90895AF
:1018200057FD9058440F551F59F05F3F71F0479591
:10183000880F97FB991F61F09F3F79F08795089576
:10184000121613061406551FF2CF4695F1DF08C095
:10185000161617061806991FF1CF869571056105B2
:1018600008940895E894BB2766277727CB0197F95A
:1018700008950E944C0C0C94BD0C0E94AF0C38F0E3
:101880000E94B60C20F0952311F00C94A60C0C9439
:10189000AC0C11240C94330C0E94100C70F3959F27
:1018A000C1F3950F50E0551F629FF001729FBB2757
:1018B000F00DB11D639FAA27F00DB11DAA1F649FF3
:1018C0006627B00DA11D661F829F2227B00DA11DA6
:1018D000621F739FB00DA11D621F839FA00D611D2C
:1018E000221F749F3327A00D611D231F849F600D4D
:1018F000211D822F762F6A2F11249F5750409AF076
:10190000F1F088234AF0EE0FFF1FBB1F661F771F01
:10191000881F91505040A9F79E3F510580F00C94CC
:10192000A60C0C94330C5F3FE4F3983ED4F38695F9
:1019300077956795B795F795E7959F5FC1F7FE2B6C
:10194000880F911D9695879597F9089597F99F6748
:1019500080E870E060E008959FEF80EC0895002437
:101960000A941616170618060906089500240A9404
:1019700012161306140605060895092E0394000C8A
:1019800011F4882352F0BB0F40F4BF2B11F460FF19
:1019900004C06F5F7F4F8F4F9F4F089597FB072EB7
:1019A00016F4009407D077FD09D00E94E80C07FCDC
:1019B00005D03EF4909581959F4F0895709561955F
:1019C0007F4F0895EE0FFF1F0590F491E02D0994CD
:1019D000AA1BBB1B51E107C0AA1FBB1FA617B70755
:1019E00010F0A61BB70B881F991F5A95A9F7809571
:0C19F0009095BC01CD010895F894FFCF44
:1019FC00FFFFFFFF00E100000000000000C180813C
:101A0C0000000012001300140015008403EE02EE17
:101A1C000258028813000050C3000088130000888D
:101A2C0013000000000000FD0266051E0313036591
:101A3C000323034103000000007C05F505BA059F54
:021A4C00050093
:00000001FF
